:020000040800F2
:10000000183C002075020008D5210008DD200008FA
:10001000D1210008DF0800080547000800000000A3
:10002000000000000000000000000000AD240008F7
:10003000150A000800000000AB240008AF240008E7
:100040008F0200088F0200088F0200088F0200084C
:100050008F0200088F0200088F0200088F0200083C
:100060008F0200088F0200088F0200088F0200082C
:100070008F0200088F0200088F0200088F0200081C
:100080008F0200088F0200088F0200088F0200080C
:100090008F0200088F0200088F0200088F020008FC
:1000A0008F0200088F0200088F0200088F020008EC
:1000B0008F0200088F0200088F0200088F020008DC
:1000C0008F0200088F0200088F0200088F020008CC
:1000D0008F0200088F0200088F0200088F020008BC
:1000E0008F0200088F0200088F0200088F020008AC
:1000F0008F0200088F0200088F0200088F0200089C
:100100008F0200088F0200088F0200088F0200088B
:100110008F0200088F0200088F0200088F0200087B
:100120008F0200088F0200088F0200088F0200086B
:100130008F0200088F0200088F0200088F0200085B
:100140008F0200088F0200088F020008D9210008E2
:100150008F0200088F0200088F0200088F0200083B
:100160008F0200088F0200088F0200088F0200082B
:100170008F0200088F0200088F02000800000000B4
:100180008F0200088F02000800F002F800F062F809
:100190000AA090E8000C82448344AAF10107DA45E2
:1001A00001D100F057F8AFF2090EBAE80F0013F0D2
:1001B000010F18BFFB1A43F001031847C85A00008B
:1001C000E85A00000A444FF0000C10F8013B13F00D
:1001D000070408BF10F8014B1D1108BF10F8015BA0
:1001E000641E05D010F8016B641E01F8016BF9D193
:1001F00013F0080F1EBF10F8014BAD1C0C1B09D1EA
:100200006D1E58BF01F801CBFAD505E014F8016B5B
:1002100001F8016B6D1EF9D59142D6D370470000ED
:100220000023002400250026103A28BF78C1FBD8FF
:10023000520728BF30C148BF0B6070471FB505F09B
:100240006CFB9DE8030000F04DFA00F01DFA1FBDA5
:1002500010B510BD00F0CDFA1146FFF7EFFF04F026
:100260008DFF00F0EBFA03B4FFF7F2FF03BC00F0E0
:10027000B9FA00000948804709480047FEE7FEE751
:10028000FEE7FEE7FEE7FEE7FEE7FEE7FEE7FEE746
:1002900004480549054A064B704700006D250008D3
:1002A00089010008182E0020183C00201834002076
:1002B0001834002070B5064600F0F8F9056806F11C
:1002C0000B0020F00704B4429CBF002070BD2B46F9
:1002D0006A68BAB11068A04210D304F108018842DC
:1002E0003CBF5068586007D35168101941601168CD
:1002F000091B016058601460101D70BD13465268E0
:10030000002AE7D12146284600F0D8F90028DED19E
:1003100070BD70B50446051F00F0C8F90068002CD8
:1003200014BF446870BD002C18BFAC423CBF2046CF
:100330006468F8D301680A18AA4218BF456003D15F
:100340002A6805461144016028684119A1421CBF72
:100350006C6070BD6168696021680844286070BD88
:1003600070B50D460646041F00F0A0F9D0F800C095
:10037000C5B1E6B105F10B0020F00703AB423CBF6D
:10038000002070BD2068984238BFDCF8042013D3E9
:10039000C11A08292FD3E01840F8041B2360FFF787
:1003A000B8FF28E03046FFF7B4FF002070BD2846B4
:1003B000BDE87040FFF77EBF002A18BFA2423CBFD5
:1003C00094465268F8D30119914216D11168084435
:1003D000984212D3C11A08293CBF2060506808D344
:1003E0005168E0184160216812681144C91A01601F
:1003F0002360CCF80400201D70BD181FFFF75AFFC2
:10040000050007D021680A1F211D00F0E0F8201D1B
:10041000FFF77FFF284670BD53EA020C00F06980A9
:100420002DE9F04B4FF00006002B1FBFB3FA83F508
:1004300003FA05F424FA05F65E4012BF1643B2FA39
:1004400082F502FA05F4C5F120051EBF22FA05FC6B
:1004500044EA0C04203556EA044C4FEA144418BF11
:10046000641C4FF000084FF00009904271EB030C40
:1004700039D3002919BFB1FA81F701FA07F6B0FAAA
:1004800080F700FA07F6C7F120071EBF20FA07FC25
:1004900046EA0C062037B6FBF4FCA7EB0507103F35
:1004A00007F01F0BCBF120060CFA0BFB2CFA06F61B
:1004B00044BFB3460026202FA4BF5E464FF0000B7A
:1004C0005BEA060C08BF4FF0010B19EB0B09ABFB05
:1004D000027C48EB0608C01B06FB02CC0BFB03CCDE
:1004E00071EB0C01C1E70B46024641464846BDE8A8
:1004F000F08B13B54FF000004FF00001AFF3008018
:10050000BDE81C40704710B5431C02E010F8011B09
:1005100071B18107FAD14FF0013202C88C1A8C43B5
:1005200014EAC211F9D0C01A0A0603D0C01E10BDC9
:10053000C01A10BD0A0401D0801E10BD0902FCD0F3
:10054000401E10BD032A40F2308010F0030C00F072
:10055000158011F8013BBCF1020F624498BF11F8FD
:1005600001CB00F8013B38BF11F8013BA2F10402B6
:1005700098BF00F801CB38BF00F8013B11F003032E
:1005800000F02580083AC0F0088051F8043B083A92
:1005900051F804CBA0E80810F5E7121D5CBF51F834
:1005A000043B40F8043BAFF30080D20724BF11F8AE
:1005B000013B11F801CB48BF11F8012B24BF00F813
:1005C000013B00F801CB48BF00F8012B704710B584
:1005D000203AC0F00B80B1E81850203AA0E818503B
:1005E000B1E81850A0E81850BFF4F5AF5FEA027CFC
:1005F00024BFB1E81850A0E8185044BF18C918C06B
:10060000BDE810405FEA827C24BF51F8043B40F80B
:10061000043B08BF7047D20728BF31F8023B48BFF0
:1006200011F8012B28BF20F8023B48BF00F8012B2E
:1006300070474FF0000200B51346944696462039A5
:1006400022BFA0E80C50A0E80C50B1F12001BFF48B
:10065000F7AF090728BFA0E80C5048BF0CC05DF8F1
:1006600004EB890028BF40F8042B08BF704748BF3F
:1006700020F8022B11F0804F18BF00F8012B7047B3
:10068000704770477047000070B5064C7C44064DBB
:100690007D4403E0206820448047241DAC42F9D10A
:1006A00070BD000014560000185600000048704746
:1006B000BC2D0020704770477047704738B504461E
:1006C0000A4600206946AFF30080002808BF38BD05
:1006D00002460099204600F047F8012038BD01206D
:1006E00000F061B8F8B5AFF30080054600200C4675
:1006F000102000BF0646A819A0420DD9324669460F
:100700000020AFF30080070008BF00F04CF800980D
:10071000A04218BF0546C419FFF7C8FF0560074689
:10072000F01D20F007004619284600F00AF8B442F0
:1007300008BFF8BDA21B31463868BDE8F84000F09C
:1007400013B800210160C0E9011070471020704704
:1007500010B500F02FF8BDE8104000F01FB8000001
:1007600000487047B42D0020034640688C4600289E
:1007700018BF88423CBF03464068F8D31868184445
:10078000884207D00CF1030020F00700001D411A39
:10079000521A0146081D0A60FFF7BBBD002801D0B0
:1007A00000F020B8704710B500F06AF8BDE81040BE
:1007B000FFF7F4BF10B5002102A000F048F80120B7
:1007C00010BD00005349475056464E3A20507572AE
:1007D00065207669727475616C20666E2063616C49
:1007E0006C65640001491820ABBEFEE726000200DC
:1007F00070477546FFF7B4FFAE460500694653469D
:1008000020F00700854618B020B5FFF741FDBDE890
:1008100020404FF000064FF000074FF000084FF067
:10082000000B21F00701AC46ACE8C009ACE8C009F8
:10083000ACE8C009ACE8C0098D46704710B5044665
:10084000AFF300802046BDE81040FFF70CBD70B547
:1008500005460C460A2000E06D1C00F039F835B161
:1008600028780028F8D102E0641C00F031F814B1B7
:1008700020780028F8D1BDE870400A2000F028B8A0
:1008800010B5012805D0002103A0FFF7E0FF0120EB
:1008900010BD09A1F8E7000053494752544D454D9A
:1008A0003A204F7574206F662068656170206D6511
:1008B0006D6F7279000000003A2048656170206D0C
:1008C000656D6F727920636F727275707465640004
:1008D00008B569468DF800000320ABBE08BD00BF17
:1008E000FEE700000346042B15D007DC7BB1012B8B
:1008F0000ED0022B0DD0032B2AD10BE0202B0BD0D6
:10090000212B22D0222B21D0232B21D11FE020E02C
:100910001FE01EE01DE01CE00F48007808700E4844
:100920000088000A48700C480068000C88700A486B
:100930000068000EC87008480079087106484079C0
:10094000487105488079887103E002E001E000E029
:1009500000BF00BF002070478001002000207047CA
:1009600010B500220449054801F071FF044903480D
:1009700001F066FF002010BD64120020C0010020BD
:10098000640A00202DE9F04104460F46002510E0DE
:100990000E480088401CC0F30A060D4800688642D5
:1009A00006D0605D0B49094A126888540748066002
:1009B0006D1C3868A842EBD82146074801F040FF7B
:1009C000054801F019FF0020BDE8F0817801002002
:1009D0007C010020641A0020C00100202DE9F041B4
:1009E00004460D4600260A48D0F89072D7F8140243
:1009F00010B10120BDE8F0812A462146044801F0EB
:100A000026FF034801F0A7FF06463046F2E7000044
:100A1000C00100207047704770B50A480468001D87
:100A20000568001D0668344454B108220649204672
:100A300001F056FB042204491031284601F050FB16
:100A400070BD0000107AFF1F5601002070B50446EB
:100A500000F010F906462546681C10B104480078DD
:100A6000054400BF00F006F9801BA842FAD370BD10
:100A70000C000020F8B502460B460025002400209B
:100A80000021DCE0012606FA01F51E6806EA0504ED
:100A9000AC4273D15E68022E02D05E68122E13D172
:100AA000CF0802F1200656F827004E07F70E0F2652
:100AB000BE40B0434F07FF0E1E69BE403043CF0813
:100AC00002F1200646F8270010684F000326BE40BA
:100AD000B0431E7906F003064F00BE40304310605D
:100AE0005E68012E08D05E68022E05D05E68112E69
:100AF00002D05E68122E13D190684F000326BE40CC
:100B0000B0434F00DE68BE4030439060506801261D
:100B10008E40B0431E79C6F300168E4030435060BD
:100B2000D0684F000326BE40B0434F009E68BE40D1
:100B30003043D0605E6806F08056B6F1805F7DD1AC
:100B400000BF00260096404E366846F480463E4F71
:100B50003E603E46366806F48046009600BF00BF01
:100B60003A4E8F0856F827008E07370F0F26BE40E3
:100B7000B043374EB24202D1002624E05EE0354E4B
:100B8000B24201D101261EE0334EB24201D102260B
:100B900019E0324EB24201D1032614E0304EB24287
:100BA00001D104260FE02F4EB24201D105260AE002
:100BB0002D4EB24201D1062605E02C4EB24201D1A3
:100BC000072600E008268F073F0FBE4030431F4E28
:100BD0008F0846F82700264E3068A0435E6806F46A
:100BE0008036B6F5803F00D12043214E3060361D5F
:100BF0003068A0435E6806F40036B6F5003F00D1C9
:100C000020431B4E361D3060361D3068A0435E68A1
:100C100006F48016B6F5801F00D12043144E083626
:100C20003060361D3068A0435E6806F40016B6F5E5
:100C3000001F00D120430E4E0C363060491C102995
:100C4000FFF420AFF8BD00004438024008380140EE
:100C5000000002400004024000080240000C024074
:100C6000001002400014024000180240001C024024
:100C7000003C01400148006870470000040000206B
:100C8000034800680349097808440149086070472F
:100C9000040000200C00002010B50D48006840F44E
:100CA00000700B4908600846006840F480600860E6
:100CB0000846006840F480700860032000F0A2F845
:100CC000002000F007F800F02BF8002010BD000015
:100CD000003C024070B504460E4800784FF47A712B
:100CE000B1FBF0F00C490968B1FBF0F5284601F0C2
:100CF000DBF908B1012070BD102C07D2002221467B
:100D0000501E00F041F80548046001E00120F2E7C0
:100D10000020F0E70C000020000000200800002068
:100D200008B500BF002000900E48006840F48040E5
:100D30000C4908600846006800F48040009000BF3D
:100D400000BF00BF00200090081F006840F08050E6
:100D5000091F08600846006800F08050009000BF3E
:100D600000BF08BD4438024001460846002809DBA0
:100D700000F01F0301229A4043099B0003F1E02386
:100D8000C3F8002100BF70472DE9F05F80460D4693
:100D90001646002704F070F9074639462A463346BE
:100DA00001F00700C0F1070ABAF1040F02D94FF0B1
:100DB000040A01E0C0F1070AD14600F1040ABAF1C1
:100DC000070F02D24FF0000A01E0A0F1030AD44657
:100DD0004FF0010A0AFA09FAAAF1010A0AEA020A1C
:100DE0000AFA0CFA4FF0010B0BFA0CFBABF1010BFA
:100DF0000BEA030B4AEA0B042146404604F044F98F
:100E0000BDE8F09F00BF00F00702064B19684FF6DF
:100E1000FF031940044B0B4343EA0221014B1960C5
:100E200000BF70470CED00E00000FA057047024675
:100E30001068416200207047F0B5034615461868F7
:100E4000446A21B944EA05401E68B06219E0186896
:100E5000806A04EB1044002208E0186800F58270F4
:100E600050F8220004EB1044501CC2B2481E9042BD
:100E7000F3D844EA0547186800F582704E1E40F822
:100E800026700020F0BD10B50446D4F8040402F02A
:100E9000F3F810BD70B504460D46C5EBC50304F16B
:100EA0003C0101EB8301CA682946D4F8040402F02E
:100EB00010F870BD70B504460D46C5EBC50304F5CA
:100EC000FE7101EB8301CA682946D4F8040402F0DC
:100ED00080F870BD10B50446D4F8040402F0CFF8D1
:100EE00010BD70B504460E4606F0800080280AD179
:100EF00006F00F00C0EBC00104F13C0000EB8105DF
:100F00000120687009E006F00F00C0EBC00104F595
:100F1000FE7000EB81050020687006F00F0028705D
:100F200000BF94F8BC03012801D1022070BD01204C
:100F300084F8BC0300BF2946206802F09BFD00BF77
:100F4000002084F8BC0300BF00BFEFE770B5044683
:100F50000E4606F00F006168884201D9012070BD7D
:100F600006F0800080280AD106F00F00C0EBC00117
:100F700004F13C0000EB81050120687009E006F0F7
:100F80000F00C0EBC00104F5FE7000EB81050020EE
:100F900068700020A87006F00F00287000BF94F859
:100FA000BC03012801D10220D9E7012084F8BC0349
:100FB00000BF2946206803F005F800BF002084F830
:100FC000BC0300BF00BFCAE7024601F00F00C0EB40
:100FD000C00302F5FE7000EB8300806970472DE9C5
:100FE000F04705460E4690461F464FF0000906F0B2
:100FF000800080280AD106F00F00C0EBC00105F187
:101000003C0000EB81040120607009E006F00F0055
:10101000C0EBC00105F5FE7000EB8104002060709C
:1010200006F00F002070C4F80880E770607808B1FF
:101030002078E080022F01D10020207100BF95F8B8
:10104000BC03012802D10220BDE8F087012085F809
:10105000BC0300BF2146286802F018FC00BF002036
:1010600085F8BC0300BF4846EEE72DE9F041044691
:101070000E461746984606F00F00C0EBC00104F577
:10108000FE7000EB8105EF60C5F814800020A861B8
:10109000687006F00F0028702069012800D12F61C8
:1010A00006F00F0028B9227C2946206802F066FE6F
:1010B00004E0227C2946206803F018F80020BDE8EF
:1010C000F08170B504460D4605F00F006168884256
:1010D00001D9012070BD05F0800080280AD105F0FB
:1010E0000F00C0EBC00104F13C0000EB81060120C1
:1010F000707007E0C5EBC50104F5FE7000EB8106DA
:10110000002070700120B07005F00F00307000BF3B
:1011100094F8BC03012801D10220DBE7012084F808
:10112000BC0300BF3146206802F093FF05F00F00BA
:1011300028B9217C04F57172206802F00BFF00BF12
:10114000002084F8BC0300BF00BFC3E72DE9F041D5
:1011500004460E461746984606F00F00C0EBC00145
:1011600004F13C0000EB8105EF60C5F8148000201D
:10117000A8610120687006F00F002870206901281E
:1011800000D12F6106F00F0028B9227C2946206883
:1011900002F0F4FD04E0227C2946206802F0A6FF5C
:1011A0000020BDE8F0812DE9FE4F04462068029042
:1011B000029E206803F085F900287DD1206803F0A5
:1011C000BFF908B9BDE8FE8F206803F0B9F900F057
:1011D0000200022805D12068406900F00200216861
:1011E0004861206803F0ACF900F40020B0F5002F4E
:1011F00058D10025206803F073F982464FE00AF0C9
:101200000100002848D0E9B2206803F08CF980463C
:1012100008F0010048B1012106F5306000EB4510EF
:1012200081602946204601F025F808F008000828CA
:1012300009D12946204600F0D7FF082106F5306085
:1012400000EB4510816008F01000102805D1102136
:1012500006F5306000EB4510816008F02000202882
:101260000ED12069012805D104F571720121206891
:1012700002F070FE202106F5306000EB4510816021
:1012800008F40050B0F5005F06D14FF4005106F5A8
:10129000306000EB451081606D1C4FEA5A0ABAF1CC
:1012A000000FACD1206803F04BF900F48020B0F5BA
:1012B000802F7ED1206800E012E203F007F9824619
:1012C000002586E00AF0010000287FD0E9B22068FE
:1012D00003F010F9804608F00100E8B305F00F01B3
:1012E00001208840019040F634008159019821EA9C
:1012F000000040F634018851012106F5106000EB32
:10130000451081602069012815D1C5EBC50104F1A4
:101310003C0000EB8100C5EBC502C16804F13C0054
:1013200000EB820080680144C5EBC50204F13C007B
:1013300000EB8200C160E9B22046FFF7ABFD2069F7
:10134000012810D145B9C5EBC50104F13C0000EB03
:101350008100406900B900E005E004F571720121E7
:10136000206802F0F7FD08F00800082805D10821E0
:1013700006F5106000EB4510816008F010001028A1
:1013800005D1102106F5106000EB4510816008F0D2
:101390004000402805D1402106F5106000EB4510C3
:1013A000816008F00200022808D1022106F51060D1
:1013B00001E012E00AE000EB4510816008F08000D7
:1013C000802803D12946204601F014F86D1C4FEA0D
:1013D0005A0ABAF1000F7FF475AF206803F0B0F835
:1013E00000F00040B0F1004F1CD140F604008059DD
:1013F00020F0010140F60400815194F8F403012823
:1014000007D1002084F8F40300212046FFF70EFDE9
:1014100002E0204600F094FA2068406900F00040A5
:1014200021684861206803F08BF800F40060B0F593
:10143000006F0ED140F60800805900F0010010B195
:10144000204600F0D5FA2068406900F40060216869
:101450004861206803F074F800F48050B0F5805FB4
:1014600072D140F60400805920F0010140F60400DA
:1014700081511021206802F0F9FF002726E04FF685
:101480007F3106F5106000EB4710816006F51060B3
:1014900000EB4710006820F4001106F5106000EB27
:1014A000471001604FF67F3106F5306000EB4710C2
:1014B000816006F5306000EB4710006820F40011F1
:1014C00006F5306000EB471001607F1C6068B84291
:1014D000D5D840F61C00805940F0011140F61C00A0
:1014E0008151206B70B1D6F8840840F00B01C6F82A
:1014F000841840F64400805940F00B0140F6440047
:1015000081510FE040F61400805942F22B0108434C
:1015100040F614018851081F805940F00B014FF428
:1015200001608151D6F8000820F4FE60C6F800087A
:10153000217C04F57172206802F00CFD206840697E
:1015400000F4805021684861206802F0F9FF00F43F
:101550000050B0F5005F17D1206802F0FFF9206855
:1015600002F09CFFE06000F01DFB0090227B2068F1
:10157000009903F035F8204600F0CAF92068406968
:1015800000F4005021684861206802F0D9FF00F0A3
:101590001000102846D12068806920F010002168D2
:1015A00088610298D0F8209009F00F00C0EBC001CC
:1015B00004F5FE7000EB810BC9F3434002281AD1F9
:1015C00047F6F07009EA000030B3C9F30A12DBF8FD
:1015D0000C10029802F0B9FFC9F30A11DBF80C00F5
:1015E0000844CBF80C00C9F30A11DBF818000844D2
:1015F000CBF8180010E0C9F3434006280CD10822AC
:1016000004F57171029802F0A0FFC9F30A11DBF82A
:1016100018000844CBF818002068806940F01000DA
:1016200021688861206802F08BFF00F0080008281C
:1016300008D1204600F08BF92068406900F00800CE
:1016400021684861206802F07BFF00F48010B0F54B
:10165000801F0AD100252946204600F043F8206863
:10166000406900F4801021684861206802F068FF3A
:1016700000F40010B0F5001F0AD1002529462046CD
:1016800000F039F82068406900F4001021684861D2
:10169000206802F055FF00F08040B0F1804F08D183
:1016A0002046FFF7F0FB2068406900F08040216889
:1016B0004861206802F044FF00F0040004280FD1C4
:1016C0002068D0F8049009F00400042802D12046D4
:1016D000FFF700FC2068406840EA09002168486084
:1016E00000BF6FE570B504460D462946D4F80404E2
:1016F00001F02CFD70BD70B504460D462946D4F8A6
:10170000040401F026FD70BD70B58AB0044614B91A
:1017100001200AB070BD266894F8BD0328B90020E6
:1017200084F8BC03204600F0A3F8032084F8BD032E
:10173000F06B00F4807008B900212161206802F08C
:1017400015FB282204F110016846FEF740FF94E8DB
:101750000F0002F027F920B1022084F8BD03012018
:10176000D7E70021206802F001FF002531E00121C8
:10177000C5EBC50204F13C0000EB82004170C5EBF3
:10178000C50104F13C0000F82150C5EBC50100EB98
:101790008100C5800021C5EBC50204F13C0000EBCF
:1017A0008200C170C5EBC50204F13C0000EB820071
:1017B0008160C5EBC50204F13C0000EB8200C16012
:1017C000C5EBC50204F13C0000EB82004161681CDE
:1017D000C5B26068A842CAD800252AE00021C5EB3E
:1017E000C50204F5FE7000EB82004170C5EBC50137
:1017F00004F5FE7000F821500021C5EBC50200EB96
:101800008200C170C5EBC50204F5FE7000EB8200DA
:101810008160C5EBC50204F5FE7000EB8200C1607B
:10182000C5EBC50204F5FE7000EB82004161681C47
:10183000C5B26068A842D1D8282204F110016846D8
:10184000FEF7C5FE94E80F0002F096F920B10220E1
:1018500084F8BD0301205CE7002084F838000120F3
:1018600084F8BD03206802F077F9002051E70000FA
:1018700010B586B004462068B0F1A04F42D100BF39
:10188000002000902048006840F001001E490860D8
:101890000846006800F00100009000BF00BF4FF450
:1018A000C050019002200290002003900320049079
:1018B0000A20059001A91548FFF7DCF800BF12487F
:1018C000001D006840F080000F49091D086000BF3E
:1018D000002000900C481430006840F480400A4911
:1018E000143108600846006800F48040009000BF92
:1018F00000BF00BF002211464320FFF745FA4320F6
:10190000FFF732FA06B010BD303802400000024046
:1019100070B504460125E06808B9002506E0E068D6
:10192000022801D1012501E0FFF775F82946D4F816
:10193000040401F087FCD4F8040401F03DFC70BD00
:1019400010B50446D4F8040401F064FC10BD10B5D1
:101950000446D4F8040401F064FC10BD70B50446DC
:101960000D4600BF94F8BC03012801D1022070BDD0
:10197000012084F8BC0300BF84F838502946206851
:1019800002F00FFE00BF002084F8BC0300BF00BFC0
:10199000EDE710B5044604F57171D4F8040401F0C4
:1019A00068FC10BD70B50446256800BF94F8BC0300
:1019B000012801D1022070BD012084F8BC0300BFC2
:1019C000A06A012806D1A069012803D0A86B40F4C1
:1019D0008030A863206802F0AFF8206802F028FD8C
:1019E00000BF002084F8BC0300BF00BFE3E7000095
:1019F00010B50446D4F8040401F094FC2068D0F833
:101A0000000E40F001002168C1F8000E206A28B1E4
:101A10000348006840F006000149086010BD00005E
:101A200010ED00E070B504460D460CB9012070BD04
:101A30005848006800F00F00A84209D255490D70BF
:101A40000846006800F00F00A84201D00120EEE730
:101A5000207800F0020002281DD1207800F0040058
:101A6000042805D14C48006840F4E0504A49086019
:101A7000207800F00800082805D14748006840F4A5
:101A80006040454908604448006820F0F000A168C3
:101A9000084341490860207800F00100A8B360685D
:101AA000012807D13C4808380068C0F34040B8B965
:101AB0000120BCE76068022802D06068032807D1D3
:101AC000354808380068C0F3406048B90120AEE7E7
:101AD000314808380068C0F3400008B90120A6E783
:101AE0002D48006820F00300616808432A49086017
:101AF000FFF7C0F8064609E0FFF7BCF8801B41F28B
:101B00008831884202D9032091E707E02248006823
:101B100000F00C006168B0EB810FEDD11D4800684A
:101B200000F00F00A84209D91A490D700846006854
:101B300000F00F00A84201D0012078E7207800F0E3
:101B40000400042807D11448006820F4E050E1683C
:101B5000084311490860207800F00800082808D1DF
:101B60000D48006820F46040216940EAC1000A493C
:101B7000086000F01DF808490968C1F30311074A1D
:101B8000515CC840064908600020FFF7A3F8002018
:101B90004DE70000003C024008380240245900088C
:101BA000000000200148006870470000000000208D
:101BB0002DE9F047002400250026A14625480068AD
:101BC00000F00C0020B1042805D008283AD105E027
:101BD000DFF8849039E0DFF8849036E01D48001F7C
:101BE000006800F03F041B48001F006800F48000FC
:101BF00078B11A481749091F0968C1F38811A0FB79
:101C000001700146224600233846FEF705FC0546D2
:101C10000EE011480F49091F0968C1F38811A0FBA4
:101C200001700146224600233846FEF7F5FB0546C3
:101C30000848001F0068C0F30140401C4600B5FB87
:101C4000F6F902E0DFF8109000BF00BF4846BDE89B
:101C5000F0870000083802400024F40000127A00E7
:101C6000F8B504460CB90120F8BD207800F0010059
:101C7000002874D0F948006800F00C0004280DD04A
:101C8000F648006800F00C00082813D1F348001F44
:101C9000006800F48000B0F5800F0BD1EF480838E1
:101CA0000068C0F34040002859D06068002856D131
:101CB0000120D9E700BF6068B0F5803F08D1E74850
:101CC0000838006840F48030E449083908601EE0B4
:101CD0006068B0F5A02F0DD1E0480838006840F4E6
:101CE0008020DE49083908600846006840F48030EA
:101CF00008600CE0D9480838006820F48030D749E3
:101D0000083908600846006820F48020086000BF99
:101D1000606890B1FEF7AEFF054606E0FEF7AAFF49
:101D2000401B642801D903209EE7CC48083800688E
:101D3000C0F340400028F1D011E0FEF79BFF0546BC
:101D400006E0FEF797FF401B642801D903208BE7CC
:101D5000C24808380068C0F340400028F1D120781C
:101D600000F0020002285FD1BC48006800F00C00BF
:101D700058B1BA48006800F00C0008281CD1B748D8
:101D8000001F006800F48000B0B9B448083800684B
:101D9000C0F3400020B1E068012801D0012063E7D2
:101DA000AE480838006820F0F800216940EAC10018
:101DB000AA490839086037E0E06800B30120A84963
:101DC0000860FEF757FF054606E0FEF753FF401B8D
:101DD000022801D9032047E7A04808380068C0F36B
:101DE00040000028F1D09D480838006820F0F80035
:101DF000216940EAC10099490839086014E00020CF
:101E000097490860FEF736FF054606E0FEF732FF09
:101E1000401B022801D9032026E7904808380068B3
:101E2000C0F340000028F1D1207800F00800082815
:101E30002CD16069A8B101208A490860FEF71AFF19
:101E4000054606E0FEF716FF401B022801D90320D5
:101E50000AE782486C300068C0F340000028F1D0E7
:101E600014E000207F490860FEF704FF054606E005
:101E7000FEF700FF401B022801D90320F4E6774853
:101E80006C300068C0F340000028F1D1207800F0E9
:101E90000400042870D1002670483830006800F033
:101EA000805090B900BF002000906C483830006826
:101EB00040F080506949383108600846006800F0F9
:101EC0008050009000BF00BF01266748006800F402
:101ED0008070B0B96448006840F48070624908605E
:101EE000FEF7C8FE054606E0FEF7C4FE401B0228CA
:101EF00001D90320B8E65C48006800F4807000282F
:101F0000F2D000BFA068012808D1544868300068AA
:101F100040F001005149683108601DE0A0680528C3
:101F20000DD14E486830006840F004004B496831DC
:101F300008600846006840F0010008600CE047486F
:101F40006830006820F001004449683108600846A4
:101F5000006820F00400086000BFA068A8B1FEF788
:101F600089FE054609E0FEF785FE401B41F28831F7
:101F7000884202D9032077E626E0384868300068B6
:101F8000C0F340000028EED013E0FEF773FE0546D4
:101F900008E0FEF76FFE401B41F28831884201D90C
:101FA000032061E62D4868300068C0F34000002837
:101FB000EFD1012E07D129483830006820F0805039
:101FC00026493831086000BFA069B8B323480068CB
:101FD00000F00C0008285ED0A069022846D100203D
:101FE0001F490866FEF746FE054606E0FEF742FE7C
:101FF000401B022801D9032036E61848083800683B
:10200000C0F340600028F1D1D4E907010843616AB8
:1020100040EA81110122A06AC2EB500041EA00416E
:102020002C20005D41EA00600C49091F0860012076
:102030000B490866FEF71EFE054607E02DE0FEF799
:1020400019FE401B022801D903200DE60348083879
:102050000068C0F340600028F1D01EE0083802405C
:1020600000004742800E47420070004000200C49AB
:102070000866FEF7FFFD054606E0FEF7FBFD401B88
:10208000022801D90320EFE506480068C0F340604C
:102090000028F2D101E00120E6E50020E4E500009F
:1020A000000047420038024070B504462546681ECD
:1020B000B0F1807F01D301200FE0681E4FF0E021D6
:1020C00048610F214FF0FF3002F0DEFF00204FF09B
:1020D000E021886107200861002070BD00BFFEE795
:1020E00030B50B46002100BF16E00A24B4EB107F88
:1020F00005D9302404EB107403F8114005E04124A5
:1021000004EB10740A3C03F81140000100254C0058
:10211000641C1D554C1CE1B29142E6DB30BD000051
:1021200008B500BF002000901548006840F004008A
:10213000134908600846006800F00400009000BFE2
:1021400000BF00BF002000900846006840F08000FB
:1021500008600846006800F08000009000BF00BFE3
:1021600000BF002000900846006840F001000860B1
:102170000846006800F00100009000BF00BF08BDE5
:102180003038024010B500220D490E4800F062FEC2
:1021900008B1FEF740FC0C490A4801F0F9F808B113
:1021A000FEF739FC0949074800F043FB08B1FEF788
:1021B00032FC044801F0B6F908B1FEF72CFC10BD62
:1021C00020010020C00100201C0000208801002008
:1021D00000BFFEE77047000010B50248FEF7E3FFBE
:1021E00010BD00005C0400202DE9F04705460C46B8
:1021F0002F683E46D7F8408006F5306000EB44106B
:10220000D0F80890286901280FD1184880451BD9BB
:1022100009F40040B0F5004F16D14FF4004106F527
:10222000306000EB441081600EE0114880450BD116
:1022300009F40040B0F5004F06D14FF4004106F517
:10224000306000EB441081602846FFF7A2FB07488E
:10225000804508D92869012805D105F57172012149
:10226000286801F077FE0020BDE8F0870A30544F5F
:102270000A31544F2DE9F04705460C46D5F8008049
:102280004646D8F8409006F5306000EB4410876869
:10229000286901287ED107F0080008281ED153487C
:1022A00081450BD907F40040B0F5004F06D14FF43B
:1022B000004106F5306000EB441081602846FFF7CE
:1022C00068FB05F571720121286801F043FE0821C1
:1022D00006F5306000EB4410816083E007F02000D9
:1022E000202806D1202106F5306000EB44108160E3
:1022F00078E007F02800002874D13C4881450CD9CB
:1023000007F40040B0F5004F07D14FF4004106F547
:10231000306000EB4410816064E0C4EBC40105F55B
:10232000FE7000EB8100816806F5306000EB441020
:102330000069C0F31200091AC4EBC40205F5FE706F
:1023400000EB82008161C4EBC40105F5FE7000EB77
:102350008100C4EBC402C16805F5FE7000EB820089
:1023600080680144C4EBC40205F5FE7000EB8200F6
:10237000C160E1B22846FEF79DFDFCB9C4EBC40183
:1023800005F5FE7000EB81004069B8B905F5717282
:10239000012100E003E0286801F0DCFD22E01448A0
:1023A00081451BD107F40040B0F5004F07D14FF431
:1023B000004106F5306000EB4410816012E007F048
:1023C0002000202805D1202106F5306000EB4410C4
:1023D0008160E1B22846FEF76DFD03E0E1B22846D8
:1023E000FEF768FD0020BDE8F08700000A30544F7A
:1023F0000A31544F2DE9F84F07460E46D7F80090A2
:10240000C846C6EBC60107F13C0000EB8104D4E9E5
:102410000510884202D90120BDE8F88FD4E90501F2
:10242000451AA068A84200D2A568E81C4FEA900AA5
:1024300017E0D4E90501451AA068A84200D2A568B2
:10244000E81C4FEA900A387CABB2F2B200904846E2
:10245000E16802F039F9E0682844E060A0692844A6
:10246000A06108F5106000EB4610806980B250450D
:1024700006D3D4E90510884202D260690028D8D179
:10248000D4E9050188420ED806F00F01012000FAB8
:1024900001FB40F6340050F8080020EA0B0040F63B
:1024A000340141F808000020B6E77047704710B5C6
:1024B000FEF7E6FB10BD000000B593B0302107A881
:1024C000FEF7B7F8142102A8FEF7B3F800BF00200A
:1024D00001902448006840F0805022490860084676
:1024E000006800F08050019000BF00BF00BF0020D6
:1024F00001901D48006840F480401B490860084670
:10250000006800F48040019000BF00BF01200790E8
:102510000004089002200D9041050E9104210F91B6
:10252000A8211091022111910721129107A8FFF70C
:1025300097FB08B1FEF76FFA0F200290022003907C
:10254000002004904FF4A05005904FF48050069066
:10255000052102A8FFF766FA08B1FEF75CFA13B08E
:1025600000BD000040380240007000401448006880
:1025700040F47000124908601248006840F0010001
:102580001049086000200F49083108600D480068B4
:102590000D4908400B4908600C48091D0860081FD8
:1025A000006820F48020091F0860002005490C31D4
:1025B00008604FF0006002498039086070470000F1
:1025C00088ED00E000380240FFFFF6FE10300024E6
:1025D0002DE9F04104460D46D4F89062D4F8987283
:1025E000D4F8900278B305EB850104F1140000EBF8
:1025F0008100806808B305EB850104F1140000EB4D
:102600008100C5EBC502816807F13C0000EB820048
:102610008068B1FBF0F200FB121070B9002105EBED
:10262000850204F1140000EB8200816000231A4649
:102630002946204600F080FE02E00020C6F8140281
:102640000020BDE8F081FFE70220FAE770B50446FC
:102650000E46D4F890523146204600F01DFDC5F8D4
:102660000C02D4F8900248B1D5F80402D4F89412C0
:10267000CA6805F503719047002070BD0220FCE791
:1026800070B504460E4600258121204600F00EFC60
:102690000021E1620121204600F008FC0021C4F87D
:1026A00058118221204600F001FC00212164D4F859
:1026B000900250B1D4F8941248688047D4F8900240
:1026C000FDF727FE0020C4F89002284670BD70B5C3
:1026D0000546D5F89042D5F8940278B194F80002F6
:1026E000FF280BD094F8012294F80002D5F8941238
:1026F0008B6821469847FF2084F80002002070BDB7
:1027000001460A20088001487047000010000020A0
:1027100001464320088001487047000098000020CF
:102720000146432008800148704700005400002003
:10273000014643200880014870470000DC0000206B
:102740002DE9F04104460F460026207C88B94FF45D
:10275000007302228121204600F0FEFC0121E1628B
:102760004B020222204600F0F7FC0121C4F8581168
:102770000FE0402302228121204600F0EDFC0121E0
:10278000E16240230222204600F0E6FC0121C4F869
:102790005811082303228221204600F0DDFC01218C
:1027A00021644FF40770FDF785FDC4F89002D4F85A
:1027B000900208B901261CE0D4F89052D4F8941283
:1027C000086880470020C5F81402C5F81802207C6C
:1027D00040B94FF4007301212046D5F8042200F0DF
:1027E000D3FC06E0402301212046D5F8042200F066
:1027F000CBFC3046BDE8F08170B50446D4F8905269
:10280000D4F8900298B1207C40B94FF400730121B4
:102810002046D5F8042200F0B7FC06E04023012151
:102820002046D5F8042200F0AFFC002070BD022045
:10283000FCE70246022011B1C2F894120020704752
:102840000246D2F89032C3F804120020704710B547
:102850000346D3F89042C4F80812C4F810220020AE
:1028600010BD2DE9FC4105460C46D5F890620020CC
:10287000019000900027207800F0600040B32028ED
:102880005FD1E088E0B1207800F0800060B1E2889C
:102890006078D5F894128B6831469847E2883146C3
:1028A000284600F0E6F812E0607886F80002A07989
:1028B00086F80102E2883146284600F0B9F806E0C1
:1028C0006078D5F8941200228B68214698473EE044
:1028D000607820B10A2812D00B282AD11FE095F881
:1028E0007402032805D102226946284600F0C1F887
:1028F00004E02146284600F08FF802271FE095F8F3
:102900007402032805D1012201A9284600F0B1F87C
:1029100004E02146284600F07FF802270FE095F8F2
:102920007402032804D02146284600F075F80227D7
:1029300005E02146284600F06FF8022700BF00BFDF
:1029400005E02146284600F067F8022700BF00BFD7
:102950003846BDE8FC8170B50546D5F89042D5F8FB
:102960009002A8B1D4F8140280B90120C4F814026E
:10297000D4F810122963B4F8100283B281212846DA
:10298000D4F8082200F0D8FC002070BD0120FCE73C
:102990000220FAE770B504460D46D4F88C022946A9
:1029A000426820469047002070BD70B504460D4631
:1029B00094F87402012804D0022803D003280CD113
:1029C00001E000BF00BF6888012805D10020C4F8DD
:1029D0007C02204600F05EF804E02946204600F024
:1029E0001BF800BF00BF70BD70B506460C4615460B
:1029F0002B4622460021304600F0C6FB002070BD69
:102A000070B506460C4615462B4622460021304638
:102A100000F092FC002070BD70B504460D46802188
:102A2000204600F05DFC0021204600F059FC70BDFE
:102A300070B504460E4615460320C4F86C024FF4E8
:102A4000A4700551001D05512B4632460021204639
:102A500000F09AFB002070BD10B504460520C4F8B4
:102A60006C0200231A461946204600F08DFB002018
:102A700010BD70B504460E4615460220C4F86C021F
:102A8000E56125622B4632460021204600F054FCC9
:102A9000002070BD10B504460420C4F86C02002369
:102AA0001A461946204600F047FC002010BD0000E1
:102AB00070B505460C462DB92246064906A000F021
:102AC0008AF904E02246034903A000F084F9014892
:102AD00070BD00006408002043444320436F6E66CD
:102AE0006967000002461220088001487047000014
:102AF0003C01002070B505460C462DB9224606491A
:102B000006A000F068F904E02246034903A000F0A3
:102B100062F9014870BD000064080020434443206E
:102B2000496E7465726661636500000002460420A8
:102B300008800148704700005001002070B505462C
:102B40000C462246024903A000F045F9004870BD3A
:102B50006408002053544D6963726F656C6563743B
:102B6000726F6E696373000070B505460C462DB92F
:102B70002246064906A000F02EF904E02246034949
:102B800003A000F028F9014870BD0000640800208F
:102B900053544D3332205669727475616C20436F03
:102BA0006D506F727400000070B505460C461A2017
:102BB0002080FDF731FF014870BD00005401002066
:102BC00070B504460D46E888012804D02946204601
:102BD000FFF722FF1EE094F87402012804D00228B7
:102BE00003D0032810D109E000BF0020A06001221B
:102BF00004F108012046FFF73CFF0AE00122211DF5
:102C00002046FFF736FF04E029462046FFF704FF81
:102C100000BF00BF70BDF8B504460E4670880012B4
:102C200008287FD2DFE800F07E040C207E7E5F6DF6
:102C3000207CD4F888120A6869469047054676E0F9
:102C4000207C40B9D4F88C02816A684688470546E2
:102C50000221697007E0D4F88C02C16A684688478F
:102C600005460221697062E0B078062834D2DFE8B8
:102C700000F0030B131B232B207CD4F888124A6826
:102C80006946904705462CE0207CD4F888128A6873
:102C900069469047054624E0207CD4F88812CA682B
:102CA0006946904705461CE0207CD4F888120A69E2
:102CB00069469047054614E0207CD4F888124A699A
:102CC0006946904705460CE0207CD4F888128A6952
:102CD00069469047054604E031462046FFF79CFED2
:102CE000F8BD00BF23E0207C30B9D4F88C02416BE2
:102CF0006846884705461AE031462046FFF78CFEB5
:102D0000EEE7207C48B9D4F88C02016B684688470E
:102D10000546072169700AE004E031462046FFF7C6
:102D20007BFEDDE731462046FFF776FED8E700BFA1
:102D3000BDF8000088B1F08878B1F088BDF80010C7
:102D4000884202DDBDF8000000E0F0880090BDF888
:102D5000002029462046FFF78CFEF08810B9204657
:102D6000FFF798FE00BFBBE70146002002E0421CCF
:102D7000D0B2491C0A78002AF9D1704770B50446D0
:102D80000D4694F87402012804D0022803D00328C9
:102D90001AD101E000BF00BFE888022804D029460C
:102DA0002046FFF739FE14E00120E060D4F87C02F1
:102DB00018B1E06840F00200E060022204F10C016A
:102DC0002046FFF756FE04E029462046FFF724FE82
:102DD00000BF00BF70BD2DE9F04104460D46174607
:102DE0000026FCB12046FFF7BFFF022101EB4000A7
:102DF00038803A783046711CCEB22A5403223046CD
:102E0000711CCEB22A540AE014F8012B3046711C12
:102E1000CEB22A5400223046711CCEB22A542078F9
:102E20000028F1D1BDE8F0810146002031B101292F
:102E300006D0022906D0032908D105E0002007E0CA
:102E4000022005E0012003E0022001E0022000BF93
:102E500000BF704770B504460D4616460CB90220F7
:102E600070BDD4F88C0210B10020C4F88C020DB1F2
:102E7000C4F88852012084F874022670204600F0BD
:102E800015F90020ECE72DE9F04104460D46002637
:102E900000272946D4F89802FEF758F8064630462F
:102EA000FFF7C2FF07463846BDE8F0812DE9F04143
:102EB00004460D46002600272946D4F89802FEF75E
:102EC00010F806463046FFF7AFFF07463846BDE824
:102ED000F0812DE9F04104460E461746002E64D1DC
:102EE00004F11405D4F86C02022848D1D5E9030195
:102EF000884210D9D5E90301401AE860A88982B256
:102F000039462046FFF77CFD00231A461946204625
:102F100000F03AF93EE02969A868B0FBF1F201FB44
:102F20001200B8B92969A868884213D3A868D4F8F0
:102F3000701288420ED2002211462046FFF760FD33
:102F40000020C4F8700200231A461946204600F0FB
:102F50001BF91FE0D4F88C02C06840B194F87402E9
:102F6000032804D1D4F88C02C16820468847802108
:102F7000204600F0B5F92046FFF76EFD0AE0D4F8D0
:102F80006C02042802D0D4F86C0218B980212046C3
:102F900000F0A6F994F87802012818D1204600F034
:102FA000FFF9002084F8780211E0D4F88C0240691F
:102FB00050B194F87402032806D1D4F88C0231463B
:102FC00042692046904702E00220BDE8F0810020DF
:102FD000FBE72DE9F04104460E461746BEBB04F55B
:102FE000A075D4F86C02032825D1D5E903018842E5
:102FF00010D9D5E90301401AE860D5E903018842F8
:1030000001D2E86800E0286982B239462046FFF71D
:10301000EBFC2FE0D4F88C02006940B194F8740204
:10302000032804D1D4F88C02016920468847204641
:10303000FFF730FD1EE0D4F86C0205281AD10020FD
:10304000C4F86C020021204600F04AF912E0FFE7C4
:10305000D4F88C02806950B194F87402032806D128
:10306000D4F88C02314682692046904702E0022063
:10307000BDE8F0810020FBE701460020704710B555
:103080000446012084F874022179D4F88C02426845
:1030900020469047002010BD70B504460D462946D5
:1030A000D4F89802FDF790FF70BD000010B50446FB
:1030B000207800282AD11648C0F80444C4F89802A1
:1030C0004FF0A040124908600420486002211048D7
:1030D000C16000210161022181610021C1610162A1
:1030E0004162C1620163FEF70FFB08B1FDF793FC7B
:1030F00080210748FDF79BFE402200210448FDF790
:103100009BFE802201210248FDF796FE002010BDA3
:103110005C04002010B50246D2F8983201F080001D
:10312000802809D101F07F00C0EBC00403F13C000E
:1031300000EB8400807810BD01F07F00C0EBC0047C
:1031400003F5FE7000EB84008078F4E7024600206F
:1031500070470246002070472DE9F04704460F46AD
:1031600015461E464FF00008C1462B4632463946EA
:10317000D4F89802FDF733FF80464046FFF754FE2F
:1031800081464846BDE8F0872DE9F04704460D46E4
:1031900016461F464FF00008C1463B4632462946B8
:1031A000D4F89802FDF761FF80464046FFF73CFEE9
:1031B00081464846BDE8F08710B50446402300220A
:1031C00011462046FFF7C8FF01214FF4A2700151BC
:1031D00040214FF4A8700151402300228021204655
:1031E000FFF7BAFF0121A16140216162012084F84B
:1031F00074020020C4F86C026060C4F87C02D4F849
:10320000900228B12179D4F88C0242682046904778
:10321000002010BD014691F8750281F8740200206B
:10322000704710B5044694F87402032808D1D4F806
:103230008C02C06920B1D4F88C02C169204688474D
:10324000002010BD02461174002070472DE9F041A6
:1032500004460D46002600272946D4F89802FEF7BA
:103260007DFB06463046FFF7DFFD07463846BDE8E2
:10327000F08170B504460D46294604F5207000F033
:1032800073F80120C4F86C0240F28620005BC4F899
:10329000700294F8800200F01F0020B1012808D0CD
:1032A000022812D10BE004F52071204600F041F90C
:1032B00013E004F52071204600F0A8FA0DE004F5B3
:1032C0002071204600F086F907E094F8800200F0B3
:1032D0008001204600F004F800BF00BF002070BD50
:1032E0002DE9F04104460D46002600272946D4F872
:1032F0009802FDF7E6FE06463046FFF795FD0746C5
:103300003846BDE8F08170B5044600250026D4F8A3
:103310009802FEF747FB05462846FFF785FD06465F
:10332000304670BD014691F8740281F875020420A0
:1033300081F87402002070472DE9F04704460D46DD
:1033400016461F464FF00008C1463B463246294606
:10335000D4F89802FDF7FAFE80464046FFF764FD78
:1033600081464846BDE8F0870A7802704A78427084
:103370008B78CA7803EB022242800B794A7903EBFF
:10338000022282808B79CA7903EB0222C2807047C5
:103390000246002011B1C2F88C1200E002207047F2
:1033A00001460020704770B504460D46A88810BB42
:1033B000E88800BB688880281DD2A87800F07F06C6
:1033C00094F87402032804D129462046FFF724FB11
:1033D00015E084F8766231462046FFF737FF204635
:1033E000FFF758FB1EB1022084F8740207E00120A9
:1033F00084F8740203E029462046FFF70DFB70BDF8
:1034000070B504460D460226D4F88C0238B1D4F8C3
:103410008C02294602682046904700B900263046B3
:1034200070BD000070B504460D46A8783649087096
:1034300008460078012804D929462046FFF7ECFA0F
:1034400060E094F87402022802D003284FD11CE0F7
:103450002D480078A8B12C4800786060032084F8DB
:103460007402294801782046FFF7CAFF022804D1D8
:1034700029462046FFF7D0FA70BD2046FFF70AFB29
:1034800002E02046FFF706FB3BE01F48007870B9DA
:10349000022084F874021C48007860601A480178A1
:1034A0002046FFF777FA2046FFF7F4FA1EE01649A8
:1034B00009786068884216D021792046FFF76AFAB9
:1034C000114800786060104801782046FFF798FFA7
:1034D000022804D129462046FFF79EFACCE7204671
:1034E000FFF7D8FA02E02046FFF7D4FA09E02946B0
:1034F0002046FFF791FA044801782046FFF74AFA80
:1035000000BF00BF00BFB7E70D00002070B5054643
:103510000C466088012804D1C5F87C022846FFF7D4
:10352000B9FA70BD10B504462046FFF7ECFE002046
:1035300010BD70B505460C460026207800F06000EE
:1035400060B1202802D040283CD100E000BFD5F86F
:103550008C02214682682846904738E060780A2825
:1035600029D2DFE800F01923281E280A0528140FA5
:1035700021462846FFF74FFB22E021462846FFF769
:1035800012FF1DE021462846FFF74CFF18E02146B8
:103590002846FFF715FB13E021462846FFF7EEFB10
:1035A0000EE021462846FFF7B1FF09E021462846F4
:1035B000FFF7FBF904E021462846FFF72DFA00BF8C
:1035C00000BF04E021462846FFF726FA00BF00BFEF
:1035D000304670BD2DE9F04105460E464FF000081B
:1035E0003479307800F0600060B1202802D04028A3
:1035F00071D100E000BFD5F88C02314682682846C0
:10360000904700E1307800F06000202809D1D5F81B
:103610008C02314682682846904780464046BDE885
:10362000F081707800285ED001282FD0032876D151
:1036300095F87402022802D0032820D110E054B17A
:10364000802C08D021462846FFF74AFE80212846D4
:10365000FFF746FE03E031462846FFF7DDF913E0A9
:10366000708840B93CB1802C05D0F08818B921464B
:103670002846FFF735FE2846FFF70CFA04E03146EE
:103680002846FFF7C9F900BF00BFB5E095F87402FE
:10369000022802D003281FD110E054B1802C08D09A
:1036A00021462846FFF71CFE80212846FFF718FE1A
:1036B00003E031462846FFF7AFF912E0708848B9B9
:1036C00004F07F0018B121462846FFF7DCFB2846AE
:1036D000FFF7E0F905E091E031462846FFF79CF955
:1036E00000BF00BF88E095F87402022802D00328CA
:1036F00076D126E034B1802C04D031462846FFF73D
:103700008BF972E004F08000802809D104F07F007A
:1037100000EB800105F1140000EB810008E066E099
:1037200004F07F0000EB800105F5A07000EB810044
:10373000074600203860022239462846FFF799F9EB
:1037400053E004F0800080280ED104F00F0000EB5D
:10375000800105F1140000EB8100406898B9314602
:103760002846FFF759F940E004F00F0000EB800114
:1037700005F5A07000EB8100406820B9314628466D
:10378000FFF74AF931E004F08000802808D104F006
:103790007F0000EB800105F1140000EB810007E0E1
:1037A00004F07F0000EB800105F5A07000EB8100C4
:1037B00007460CB1802C02D10020386009E0214678
:1037C0002846FFF7A7FC10B10120386001E0002077
:1037D0003860022239462846FFF74BF905E0FFE73B
:1037E00031462846FFF718F900BF00BF04E0314614
:1037F0002846FFF711F900BF00BF04E03146284614
:10380000FFF70AF900BF00BF404608E770B505465C
:103810000C460026207800F0600030B1202802D04D
:1038200040282AD100E000BF00BF95F874020128AB
:1038300004D0022803D0032818D101E000BF00BF44
:10384000207901280DD8D5F88C02214682682846B7
:1038500090470646E08840B93EB92846FFF71AF976
:1038600003E021462846FFF7D7F804E02146284622
:10387000FFF7D2F800BF00BF04E021462846FFF75B
:10388000CBF800BF00BF002070BD000070B504463B
:103890000B4622461978587801282CD140F61C0096
:1038A00080581D7805F00F060125B540ADB22843BC
:1038B00040F61C05A85002F5106000EB41100068AE
:1038C00000F40040F0BB1889C0F30A00DD7840EA3C
:1038D000854040EA815040F0805040F4004002F5BD
:1038E000106505EB41152D68284302F5106505EBC1
:1038F000411528602DE040F61C0080581D7805F029
:103900000F060125B540144E06EA0545284340F64A
:103910001C05A85002F5306000EB4110006800F46F
:10392000004078B91889C0F30A00DD7840EA854084
:1039300040F0805040F4004002F5306505EB411541
:103940002D6800E005E0284302F5306505EB4115E0
:103950002860002070BD00000000FFFF02461146F5
:103960004FF410604058C30ADB024FF4106043501C
:1039700040F60800405800F00600042807D14FF434
:103980001060405840F003034FF41060435040F67D
:103990000400405840F4807340F604004350002077
:1039A000704700000FB470B504460A98012817D17B
:1039B000A06B20F48030A063E0681A490840E06002
:1039C000E06820F44010E0601198012803D1E0681D
:1039D00040F48010E060204600F026F8054612E032
:1039E000E06840F04000E060204600F01DF8054629
:1039F0000E9820B9A06B40F48030A06303E0A06B68
:103A000020F48030A0630898012807D1A06840F016
:103A10000600A060A06840F02000A060284670BCAE
:103A20005DF814FBBFFFBDFF0146002200BF501C24
:103A300002460F4B984201D903207047086900F0F5
:103A400000400028F3D00022086940F0010008611E
:103A500000BF501C0246064B984201D90320ECE7F8
:103A6000086900F001000028F3D100BFE5E700007D
:103A7000400D030070B504460B4621461A7858786D
:103A8000012826D140F63C0040581D7805F00F066D
:103A90000125B540ADB2A84340F63C05685040F65C
:103AA0001C0040581D7805F00F060125B540ADB249
:103AB000A84340F61C05685001F5106000EB421069
:103AC00000681A4D284001F5106505EB4215286085
:103AD00029E040F63C0040581D7805F00F0601250E
:103AE000B540134E06EA0545A84340F63C0568502C
:103AF00040F61C0040581D7805F00F060125B54022
:103B00000B4E06EA0545A84340F61C05685001F532
:103B1000306000EB42100068064D284001F530652A
:103B200005EB42152860002070BD0000007833ECE2
:103B30000000FFFF0078F3EF70B50446254640F61D
:103B40000400405920F0020140F6040041510320D6
:103B5000FCF77CFF002070BD70B50446254640F69A
:103B60000400405940F0020140F604004151032096
:103B7000FCF76CFF002070BD0FB4F0B505460027C0
:103B80002E46002405E0002105F5827040F824103F
:103B9000641C0F2CF7D3109860B9A86B40F4001088
:103BA000A863A86B20F40020A863A86B20F48020F1
:103BB000A86307E0286820F400102860A86B40F490
:103BC0000020A8630020C6F8000ED6F80008C6F84A
:103BD00000080B9801280BD1089820B9002128462D
:103BE00000F0F4FC08E00121284600F0EFFC03E0BF
:103BF0000321284600F0EAFC1021284600F036FC9C
:103C000000B10127284600F01BFC00B1012700216C
:103C10004FF401608151001D815140F61C0081511B
:103C200000242EE006F5106000EB4410006800F060
:103C30000040B0F1004F10D13CB94FF0006106F5E3
:103C4000106000EB441001600DE04FF0904106F56C
:103C5000106000EB4410016005E0002106F51060E3
:103C600000EB44100160002106F5106000EB4410E9
:103C700001614FF67F3106F5106000EB4410816062
:103C8000641C0698A042CDD800242EE006F53060D2
:103C900000EB4410006800F00040B0F1004F10D17C
:103CA0003CB94FF0006106F5306000EB4410016054
:103CB0000DE04FF0904106F5306000EB44100160DC
:103CC00005E0002106F5306000EB441001600021A2
:103CD00006F5306000EB441001614FF67F3106F5C8
:103CE000306000EB44108160641C0698A042CDD87F
:103CF0004FF40160805920F480714FF401608151CC
:103D00000998012809D115494FF403608151805960
:103D1000134908434FF4036188510020A8616FF0F4
:103D200080406861099818B9A86940F01000A8613E
:103D3000A8690C490843A8610C9818B1A86940F01B
:103D40000800A8611098012803D1A8690649084312
:103D5000A8613846F0BC5DF814FB0000000180004B
:103D60000300010000383C800400004001468868E0
:103D700020F001008860002070470000F0B5054683
:103D80000B4614462A4619785878012875D1586987
:103D900020BB02F5106000EB411000696C4E304012
:103DA00002F5106606EB4116306102F5106000EB7B
:103DB0004110006940F4002602F5106000EB41104C
:103DC000066102F5106000EB41100069C60CF604B4
:103DD00002F5106000EB4110066137E002F510605B
:103DE00000EB41100069C60CF60402F5106000EB10
:103DF0004110066102F5106000EB41100069544E5D
:103E0000304002F5106606EB411630619E68586935
:103E1000B04201D99868586102F5106000EB41107A
:103E2000006940F4002602F5106000EB41100661C5
:103E300002F5106000EB411000695E69C6F31206DE
:103E4000304302F5106606EB41163061012C15D1A6
:103E5000186928B102F5106000EB41101E69466137
:103E600002F5106000EB4110006840F0044602F5D6
:103E7000106000EB4110066068E01BE002F5106086
:103E800000EB4110006840F0044602F5106000EBC2
:103E9000411006605869002858D040F63400805818
:103EA0001E7806F00F070126BE40304340F6340668
:103EB000B0504BE002F5306000EB41100069C60CD9
:103EC000F60402F5306000EB4110066102F5306047
:103ED00000EB411000691E4E304002F5306606EBE3
:103EE00041163061586908B19868586102F5306030
:103EF00000EB4110006940F4002602F5306000EB51
:103F00004110066102F5306000EB411000699E68C7
:103F1000C6F31206304302F5306606EB41163061F7
:103F2000012C07D1D86828B102F5306000EB4110B0
:103F3000DE68466102F5306000EB4110006840F039
:103F4000044602F5306000EB411006600020F0BD31
:103F5000FFFF07E070B503460C4619461D6C184874
:103F6000854209D94FF43060405800F00040B0F16C
:103F7000004F01D1002070BD0026C1F8106BD1F8B0
:103F8000100B40F40026C1F8106BD1F8100B40F074
:103F90001806C1F8106BD1F8100B40F0C046C1F8FC
:103FA000106B012C09D1C1F8142B4FF4306040582C
:103FB00040F080264FF4306046500020DBE70000E0
:103FC0000A30544F30B504460B46224619785878CB
:103FD00001281ED102F5106000EB4110006820F4AA
:103FE000001502F5106000EB41100560D878032839
:103FF00002D0D87802282AD102F5106000EB4110D7
:10400000006840F0805502F5106000EB411005603B
:104010001DE002F5306000EB4110006820F400154F
:1040200002F5306000EB41100560D878032802D01B
:10403000D87802280BD102F5306000EB41100068FF
:1040400040F0805502F5306000EB41100560002023
:1040500030BD30B504460B46224619785878012801
:1040600021D102F5106000EB4110006800F0004023
:1040700060B959B102F5106000EB4110006820F002
:10408000804502F5106000EB4110056002F51060FC
:1040900000EB4110006840F4001502F5106000EBE1
:1040A0004110056020E002F5306000EB411000682F
:1040B00000F0004060B959B102F5306000EB4110EA
:1040C000006820F0804502F5306000EB411005608B
:1040D00002F5306000EB4110006840F4001502F575
:1040E000306000EB41100560002030BD2DE9F84341
:1040F00081460E4617464D463478707801287DD1AA
:10410000706920BB05F5106000EB44100069C749D9
:10411000084005F5106101EB4411086105F51060D8
:1041200000EB4410006940F4002105F5106000EB3D
:104130004410016105F5106000EB44100069C10CEA
:10414000C90405F5106000EB4410016155E005F568
:10415000106000EB44100069C10CC90405F5106043
:1041600000EB4410016105F5106000EB441000699C
:10417000AE49084005F5106101EB44110861B168D2
:1041800070690844401EB0FBF1F0A849C94301EA38
:10419000C04005F5106101EB44110969084305F5BC
:1041A000106101EB4411086105F5106000EB44104B
:1041B00000697169C1F31201084305F5106101EB53
:1041C00044110861F078012817D105F5106000EB63
:1041D0004410006920F0C04105F5106000EB441068
:1041E000016105F5106000EB4410006940F00051DA
:1041F00005F5106000EB4410016100E07FE0012F45
:1042000036D1306928B105F5106000EB44103169F2
:104210004161F07801281ED140F60800405900F4B1
:10422000807060B905F5106000EB4410006840F044
:10423000005105F5106000EB441001600BE005F53E
:10424000106000EB4410006840F0805105F51060EC
:1042500000EB4410016005F5106000EB44100068AD
:1042600040F0044105F5106000EB44100160DAE015
:1042700005F5106000EB4410006840F0044105F5BE
:10428000106000EB44100160F07801280FD07069D5
:104290000028ECD040F634004059317801F00F028C
:1042A00001219140084340F634014851BBE040F6FB
:1042B0000800405900F4807060B905F5106000EB0B
:1042C0004410006840F0005105F5106000EB441008
:1042D00001600BE005F5106000EB4410006840F051
:1042E000805105F5106000EB441001600097B08A22
:1042F00083B232784846F16800F0E6F993E005F5BC
:10430000306000EB44100069C10CC90405F5306051
:1043100000EB4410016105F5306000EB44100069CA
:104320004249084005F5306101EB441108617069AC
:10433000D0B905F5306000EB44100069B168C1F3F5
:104340001201084305F5306101EB4411086105F5E0
:10435000306000EB4410006940F4002105F5306046
:1043600000EB4410016126E0B16870690844401E0A
:10437000B0FBF1F01FFA80F805F5306000EB441057
:1043800000692A49C94301EAC841084305F530617B
:1043900001EB4411086105F5306000EB4410006941
:1043A000B16801FB08F1C1F31201084305F5306162
:1043B00001EB44110861012F07D1F06828B105F520
:1043C000306000EB4410F1684161F07801281ED1A3
:1043D00040F60800405900F4807060B905F530607F
:1043E00000EB4410006840F0005105F5306000EB30
:1043F000441001600BE005F5306000EB44100068EC
:1044000040F0805105F5306000EB4410016005F587
:10441000306000EB4410006840F0044105F5306066
:1044200000EB441001600020BDE8F883FFFF07E0C7
:104430000146886840F00100886000207047000055
:10444000014600221020086100BF501C0246064BA6
:10445000984201D903207047086900F01000102825
:10446000F3D00020F7E70000400D030010B502462E
:104470000023202040EA8110106100BF581C034631
:10448000054CA04201D9032010BD106900F02000A6
:104490002028F3D00020F7E7400D030010B50146B7
:1044A0000B4640F60804E45804F006020AB900205E
:1044B00006E0022A01D0062A01D1022000E00F20E6
:1044C00010BD0146486900F00100704701460B46E7
:1044D00040F61800C258001DC058024090B2704704
:1044E00001460B4640F61800C258001DC058024055
:1044F000100C704770B5024613464FF40166F4582D
:1045000040F63406F55801F00F0625FA06F606F0D7
:10451000010644EAC61403F5106606EB4116B668B8
:1045200006EA040070BD10B50246134603F5306478
:1045300004EB4114A06840F61404E458204010BD78
:10454000014648698A6910407047F0B503461E4627
:104550000846D71CBD08002405E04FF48057BF591A
:104560000760001D641CAC42F7D3F0BD70B5044673
:104570000D46E06820F0C040E060012D04D1E06805
:1045800040F00050E06007E025B9E06840F080406E
:10459000E06001E0012070BD3220FCF757FA0020F6
:1045A000F9E710B502460B461146D1F8000820F491
:1045B000FE60C1F80008D1F800084FF4FE6404EA78
:1045C00003142043C1F80008002010BD0246134622
:1045D000D3F800080843C3F8000800207047000023
:1045E00030B503461446022C49D12D48814204D3EC
:1045F0002C48814201D20F2245E02A48814204D34F
:104600002948814201D20E223DE02748814204D34D
:104610002648814201D20D2235E02448814204D34C
:104620002348814201D20C222DE02148814204D34B
:104630002048814201D20B2225E01E48814204D34A
:104640001D48814201D20A221DE01B48814204D349
:104650001A48814201D2092215E01848814204D348
:104660001748814201D208220DE01548814204D347
:104670001448814201D2072205E0062203E00CB96A
:10468000092200E00922D86820F47050D860D86868
:104690004FF4705505EA82252843D860002030BDCC
:1046A000C0ACD800C0E1E4000024F400807306012F
:1046B000A0491A01002D310140A44C0100366E01C1
:1046C00020ABA6010048E8012DE9F04304460D4661
:1046D000DDF81CC0A0462E46BCF1000F0FD1D81C3F
:1046E0008708002109E008F5805000EB0230D6F879
:1046F0000090C0F80090361D491CB942F3D3002049
:10470000BDE8F08300BFFEE710B52048B0F9000017
:1047100000EE100AB8EEC00A1D4880ED150A1B48CD
:10472000B0F9020000EE100AB8EEC00A184880ED99
:10473000160A1648B0F9040000EE100AB8EEC00AD6
:10474000134880ED170A1348B0F9000000EE100A74
:10475000B8EEC00A0E4880ED220A0E48B0F90200F9
:1047600000EE100AB8EEC00A094880ED230A094895
:10477000B0F9040000EE100AB8EEC00A044880ED5B
:10478000240A0146044800F0E1F910BDB8010020F8
:10479000D02C0020B2010020882D002001460148C5
:1047A00070470000845A0008014601487047000025
:1047B000A55A000870B50446204600F0BDF904462D
:1047C00025482060251D284600F0B6F905462348F7
:1047D00028600020686005F1080000F0B3F9A0F13E
:1047E00008051F48286100BF2C1F04F11805284642
:1047F00000F0A2F905461B4828609FED1B0A85EDD5
:10480000010A9FED190A85ED020A9FED170A85ED51
:10481000030A9FED150A85ED040A00BFA5F11804EF
:10482000242105F11400FBF704FF04F1500000F00F
:1048300035F8A0F1500424211030FBF7FAFE04F102
:10484000840000F02BF8A0F1840424211030FBF741
:10485000F0FE204670BD0000745900085C5A000844
:10486000505C00088C590008000000000146014817
:1048700070470000B55A0008014601487047000023
:10488000D65A00080146014870470000EF5A000858
:104890000146014870470000105B000810B504464F
:1048A000204600F049F90446074820609FED070ABA
:1048B00084ED010A9FED050A84ED020A9FED030ACB
:1048C00084ED030A204610BDA45900080000000032
:1048D0002DE9F84F06460D4600242F5D2819407833
:1048E00047EA00272819807847EA00472819C07846
:1048F00047EA0067241D7068B84204D2B900F06826
:10490000FBF72EFDF060776000201FE00021009192
:104910002A5D0099114300912A195278009941EAC1
:10492000022100912A199278009941EA02410091EE
:104930002A19D278009941EA026100910099B16088
:10494000241DD6E9022141F82020401C71688142D3
:10495000DCD815F804802819407848EA002828197E
:10496000807848EA00482819C07848EA0068241D81
:104970003069404505D24FEA8801B069FBF7F0FC89
:10498000B061C6F81080002021E0002100912A5D6E
:104990000099114300912A195278009941EA0221A5
:1049A00000912A199278009941EA024100912A194E
:1049B000D278009941EA026100919DED000A86EDEE
:1049C000050A241DD6E9052141F82020401C316943
:1049D0008142DAD815F804902819407849EA00296C
:1049E0002819807849EA00492819C07849EA0069FD
:1049F000241DF069484505D24FEA8901706AFBF72A
:104A0000AFFC7062C6F81C904FF0000A1EE0291936
:104A1000684600F067FF241D204603E02A5C411E23
:104A20006A54401C009921448142F7D80021009823
:104A30002044401E29542819401E30620098044426
:104A4000D6E9081040F82A100AF1010AF069504529
:104A5000DDD82046BDE8F88F0146014870470000C8
:104A6000265B000801460148704700003C590008D9
:104A70000146014870470000475B000801460148B5
:104A800070470000685B000801460148704700005D
:104A90007C5B000801460148704700009D5B0008F0
:104AA00070B5074D0C68B4FBF5F605FB16430C68B2
:104AB000B4FBF5F20468144404600B6070BD0000A0
:104AC00000CA9A3B31B52DED020B01466C462068B9
:104AD000C0F3C7530BB103F560732268002001F8DF
:104AE000010B01F8010B01F8010B5007000E01F852
:104AF000010BC2F3C70001F8010BC2F3C72001F894
:104B0000010BF02000EA0310C2F3C345284301F86B
:104B1000010BC3F3061001F8010B9DED000AB5EE81
:104B2000C00AF1EE10FA05D211F8010C40F0800035
:104B300001F8010C08203EBD0149016070470000EA
:104B40002C5A0008002101604160704770B504468E
:104B50000D46D4E90210026813682A46984770BDD2
:104B6000016042600361704710B5024600200B5C93
:104B700053600C186478536843EA042353600C189C
:104B8000A478536843EA044353600C18E4785368EC
:104B900043EA04635360001D0C5C94600C18647855
:104BA000936843EA042494600C18A478936843EA59
:104BB000044494600C18E478936843EA04649460B5
:104BC000001D10BD0146014870470000F05B000861
:104BD0000146014870470000115C000810B504460A
:104BE0002046FFF7A9FF044603482060201DFFF779
:104BF000A9FF041F204610BD445A00080146014881
:104C0000704700001F5C0008014601487047000023
:104C1000405C00080146014870470000515C0008F4
:104C20000146014870470000725C000810B5044658
:104C3000204600F010F810B94FF0FF3010BDA0680A
:104C4000401CA06000F0D8FAF8E770B504460D46A5
:104C5000FDF798FA70BD10B5044600F0C1FA10BD1A
:104C6000054901604FF4E13141600021C16081607C
:104C70004161016170470000605900082DE9F04171
:104C800005460E4600243119281D00F099F9044408
:104C9000311905F1180000F043F8044400270CE036
:104CA00005F12C0101EB8701D1ED000AB0EE600A9D
:104CB0003019FFF707FF04447F1C092FF0D3311987
:104CC00005F1500000F052F8044400270CE005F113
:104CD000600101EB8701D1ED000AB0EE600A3019E6
:104CE000FFF7F0FE04447F1C092FF0D3311905F1C2
:104CF000840000F03BF8044400270CE005F1940127
:104D000001EB8701D1ED000AB0EE600A3019FFF720
:104D1000D9FE04447F1C092FF0D32046BDE8F08162
:104D200070B505460E460024D5ED010AB0EE600AC6
:104D30003019FFF7C7FE0444D5ED020AB0EE600A51
:104D40003019FFF7BFFE0444D5ED030AB0EE600A48
:104D50003019FFF7B7FE0444D5ED040AB0EE600A3F
:104D60003019FFF7AFFE0444204670BD70B505460C
:104D70000E460024D5ED010AB0EE600A3019FFF7A7
:104D8000A1FE0444D5ED020AB0EE600A3019FFF727
:104D900099FE0444D5ED030AB0EE600A3019FFF71E
:104DA00091FE0444204670BD2DE9F84306460D46A9
:104DB000002430792855B088000A29194870706895
:104DC000000C291988707068000E2919C870241DFC
:104DD000002013E0F16851F8201000910099295546
:104DE0000099090A2A1951700099090C2A19917021
:104DF0000099090E2A19D170241D401C7168814246
:104E0000E8D8307C2855308A000A29194870306962
:104E1000000C291988703069000E2919C870241DEA
:104E2000002016E0B16901EB800191ED000A8DEDE3
:104E3000000A009929550099090A2A195170009908
:104E4000090C2A1991700099090E2A19D170241D94
:104E5000401C31698142E5D8307F2855B08B000A6B
:104E600029194870F069000C29198870F069000E42
:104E70002919C870241D002713E0716A51F8270012
:104E8000FBF741FB80462819414600F03BFD241DFD
:104E9000726A52F8271028194246FBF753FB444424
:104EA0007F1CF069B842E8D82046BDE8F8832DE9B8
:104EB000F04105460E46002428793055641CA86848
:104EC000FBF721FB07463019394600F01BFD241D76
:104ED00030193A46A968FBF735FB3C442046BDE84B
:104EE000F0812DE9F84306460D4600243079285517
:104EF000B088000A29194870A41CB068FBF703FBAE
:104F000007462819394600F0FDFC241D28193A46A9
:104F1000B168FBF717FB3C44F068FBF7F4FA8046F6
:104F20002819414600F0EEFC241D28194246F1687C
:104F3000FBF708FB44443069FBF7E5FA8146281982
:104F4000494600F0DFFC241D28194A463169FBF769
:104F5000F9FA4C4470690090009828550098000AAE
:104F6000291948700098000C291988700098000EC3
:104F70002919C870241D2046BDE8F88310B50246E3
:104F8000002013790B5493881B0A0C186370536824
:104F90001B0C0C18A37053681B0E0C18E370001D3B
:104FA000137A0B5413891B0A0C18637093681B0C3B
:104FB0000C18A37093681B0E0C18E370001D10BD35
:104FC0002DE9F04105460E46002428793055A88881
:104FD000000A311948706868000C311988706868D7
:104FE000000E3119C870241D287A30552889000A0E
:104FF00031194870A868000C31198870A868000E33
:105000003119C870241D287B3055A889000A311930
:105010004870E868000C31198870E868000E311992
:10502000C870241D2869FBF76EFA07463019394607
:1050300000F068FC241D30193A462969FBF782FA12
:105040003C442046BDE8F0812DE9F04105460E467E
:1050500000246868FBF757FA07463019394600F014
:1050600051FC241D30193A466968FBF76BFA3C4441
:105070002046BDE8F081000002480068C0F302202D
:10508000704700000CED00E010B5002804DB0A07B3
:10509000130E054A135406E00A07140E034A00F0E3
:1050A0000F031B1FD45410BD00E400E018ED00E016
:1050B0000020FBF74DBB000010B50E4800F0ACFB24
:1050C0000D4C2046FFF738FD04460C4820600C4884
:1050D000606000BF0023084A0AA10C48FFF740FDAA
:1050E0000B48FFF767FB0023094A0AA10A48FFF7AC
:1050F00037FD10BD642300209C010020745A000875
:10510000825C00086368617474657200BC2C0020C6
:10511000D02C0020696D7500882D002000B5024854
:10512000FFF79EFD00BD00009C2D002010B5FBF791
:10513000A1FD0C4908600C4800680968081A052898
:105140000BD30A480A4948600A48FFF7FFFCFFF7FB
:10515000DBFA0448006804490860074800F0ACF92D
:1051600010BD000098010020942C0020A401002014
:105170009C010020BC2C002064230020FBF78CFD48
:10518000FDF79AF9FCF7CCFFFCF7FCFF00F004F800
:1051900001E0FFF7CBFFFCE710B500BF00BF0D4AF1
:1051A00091685068FFF751FD00BF00200949C1F820
:1051B000E008C1F8E408C1F8EC08C1F8E80800BF4D
:1051C0000549044800F010FB0449024800F00CFBBC
:1051D00010BD000064230020BC2C0020882D00207E
:1051E0000348008803490988401AC0F30A00704741
:1051F000780100207C0100200D4800680D490968F5
:10520000884202D14FF0FF3070470B48094A1268BC
:10521000815C084A1288521C90B2C21700EB5252AD
:10522000D212A0EBC222034B1A600846ECE7000042
:10523000780100207C010020641A002070B586B03F
:1052400004466E463046FFF777FC06464848306015
:105250000020B0804748B060F0603061002070618D
:1052600000BF00253DE004F6180050F82500B8B353
:1052700004F6180050F82500008980B2ADF804004B
:1052800004F6180050F825000068029004F6180291
:1052900052F82520506804F6180252F8252052686A
:1052A000126891688847039004F6180252F8252086
:1052B000506804F6180252F8252052681268D16826
:1052C000884704904FF48060059004F6180151F867
:1052D000250001690E4620686A4603682046984703
:1052E0006D1C192DBFDB00253AE004F67C0050F858
:1052F0002500A0B304F67C0050F82500808880B219
:10530000ADF8040004F67C0050F825008068029097
:1053100004F67C0252F8250052F8252012689168A4
:105320008847039004F67C0252F8250052F82520A5
:105330001268D168884704904FF48060059004F6A5
:105340007C0252F8250052F82520126851688847DF
:10535000064620686A4631460368204698476D1C19
:10536000192DC2DB012084F8F40806B070BD0000DE
:10537000EC590008B65B00083EB504466846FFF7E6
:105380002DFC20686A460A2103682046984700BF22
:1053900001480068E0603EBD040000202DE9FE4F9A
:1053A00004460E469246642E05DB94F8F40810B9C4
:1053B0000020BDE8FE8FDAF8000004F21F41026809
:1053C0005046904785B2FF2084F81804FE2140F231
:1053D00019400155401C05552912401C0155411E1C
:1053E0000A5D0146095D5018C11700EB11610912F1
:1053F000A0EB0121C1F1FF01CAB240F21C410A55E4
:10540000481C0655C6F30721401C015500270520FE
:1054100004E004F58361095C0F44401CE91D8842E7
:10542000F7DBE81D85B23846F91707EB1161091261
:10543000A7EB0121C1F1FF01CBB229466A1C95B24D
:1054400004F583625354B5F5806F0DDC9046A94690
:1054500000BF00BF1FFA89F14046FBF7BFFA0028E2
:10546000F8D100BF2846A4E7DFF840804FF0030BD7
:10547000E9464846FFF760FB81460D48C9F8000041
:10548000002089F804000B48C9F8080000BF8DF817
:1054900004B0CDF8088020686A46072103682046DA
:1054A000984700BF00BF4FF0FF3082E7B75B0008AE
:1054B000D45900087B5B000870B5044600BFA048C3
:1054C00000680646D4F8FC08301A42F6F8218842F3
:1054D00002D9002084F8F408D4F8E00830B1D4F8F8
:1054E0000009B04202D20020C4F8E00814E100BF75
:1054F000606802681168884720B160680268516876
:10550000884701E04FF0FF300546002D00DA04E146
:10551000D4F8F0082844C4F8F008D4F8E0080728C4
:1055200014D1D4F8EC28501CC4F8EC0804F118008D
:105530008554D4F8E408401EC4F8E408D4F8E4081C
:10554000002802D10820C4F8E008E4E0D4F8E0081C
:10555000B0B9FF2D09D1D4F8E008401CC4F8E00828
:1055600006F11400C4F80009D5E000BF74480068D3
:10557000801B0528E9D9002084F8F408801E70BD3E
:10558000D4F8E008012812D1FE2D05D1D4F8E008A6
:10559000401CC4F8E008BEE00020C4F8E00894F81D
:1055A000F4080028D1D12046FFF7E6FEB3E0D4F896
:1055B000E00802280BD104F50E6465600020E0606D
:1055C0002068401C20602561A4F50E64A3E0D4F897
:1055D000E00803280BD1D4F8E40800EB0520C4F858
:1055E000E408D4F8E008401CC4F8E00893E0D4F8DC
:1055F000E008042813D1D4F8F008C11700EB1161BA
:105600000912A0EB0121FF2905D1D4F8E008401CC4
:10561000C4F8E0087FE00020C4F8E0087BE0D4F89C
:10562000E008052809D1C4F8E858D4F8E008401C7F
:10563000C4F8E008C4F8F0586DE0D4F8E008062893
:105640000FD1D4F8E80800EB0520C4F8E8080720DB
:10565000C4F8E008D4F8E40868BB0820C4F8E008FF
:1056600059E0D4F8E008082855D10020C4F8E00833
:10567000D4F8F008C11700EB11610912A0EB012169
:10568000FF2948D1D4F8E80860B92046FFF774FE36
:105690002046FFF7D3FDC4F8F868C4F8FC684FF063
:1056A000FF306CE7D4F8E8080A2805D104F11801A6
:1056B000204600F047F82EE0D4F8E808062809D183
:1056C00004F1180104F60810FFF702F9012084F82C
:1056D000040920E0D4F8E8080B2803D1002084F85E
:1056E000F40818E0D4F8E808643804F67C0151F8AE
:1056F000200080B1D4F8E818643904F67C0353F82C
:105700002100D4F8E818643953F8211009680A68B0
:1057100004F11801904700BFE9E600BF94F8F408CF
:1057200058B1D4F8F808301A40F6C411884204D9A8
:105730002046FFF721FEC4F8F86800201FE70000AC
:10574000040000202DE9FE43044688466846FFF722
:1057500045FA00BF22480068E168461A414668469B
:10576000FFF702FA4FF47A70B6FBF0F001990844A3
:1057700001904FF47A70B6FBF0F100FB116043F634
:1057800009514843029901EB8011029101AD00BF1C
:105790001348006807464FF47A70B7FBF0F02968A9
:1057A000081A401E20614FF47A70B7FBF0F100FB3D
:1057B000117043F6095148436968A1EB801009490B
:1057C0000844606104F11401081FFFF769F900BF84
:1057D00000BF03480068C4F8FC08BDE8FE83000071
:1057E0000400002000CA9A3B02460B4600210FE04D
:1057F00002F6180050F8210048B902F6180040F8E7
:10580000213001F17D009860DA6001207047491C69
:105810001929EDDB0020F9E770B504462D492E4823
:105820002060201D2D4901604FF46141416000BF9F
:10583000041F002084F8F40804F608152846FFF732
:105840007BF905462648286000206860E8602861EA
:10585000A861E861686200BFA5F6081400BF05E012
:10586000002204F6180141F82020401C1928F7D323
:10587000002005E0002204F67C0141F82020401CB5
:105880001928F7D3002004E0002204F118010A547B
:10589000401CB0F5806FF7D3002004E0002204F52F
:1058A00083610A54401CB0F5806FF7D3002140F6A5
:1058B0000C10015140F614100151001D01514FF41C
:1058C0001260015140F60C10015140F614100151C4
:1058D000204670BD185A0008045A00089C2D00206C
:1058E000BC59000810B50A460021016000BF06E05F
:1058F000535CCC00A340046823430360491C042983
:10590000F6D310BD0246002004E0C30021FA03F3E1
:105910001354401C0428F8D370474FF04070E1EE58
:10592000100A70470000000000000000010203049C
:10593000060708090000000001020304726F737378
:10594000657269616C5F6D7367732F526571756500
:105950007374506172616D0000000000000000006F
:10596000574C00082D4C000800000000000000000B
:10597000000000007D4C000800000000A94700085E
:105980009D4700080000000000000000214D0008B5
:1059900000000000794800086D4800080000000081
:1059A000000000006D4D0008000000009148000854
:1059B000854800080000000000000000A94D000814
:1059C000D1480008654A0008594A00080000000054
:1059D00000000000AF4E0008000000007D4A0008F3
:1059E000714A00080000000000000000E34E0008BB
:1059F00000000000954A0008894A000800000000E5
:105A0000000000009D530008B95400080000000089
:105A10000000000000000000B1500008B150000874
:105A2000B15000080000000000000000B150000864
:105A3000B1500008B1500008B1500008000000004B
:105A4000000000007D4F0008694B0008D14B0008A2
:105A5000C54B00080000000000000000C14F000816
:105A600000000000094C0008FD4B00080000000089
:105A7000000000004950000800000000214C000810
:105A8000154C000836613632633664616165313029
:105A9000336634666635376131333264366639359C
:105AA000636563320073656E736F725F6D736773E6
:105AB0002F496D750061373739383739666164664B
:105AC0003031363037333466393036623863313905
:105AD00063373030340067656F6D657472795F6D60
